{
  "contractName": "NetIx",
  "abi": [
    {
      "inputs": [],
      "payable": false,
      "stateMutability": "nonpayable",
      "type": "constructor"
    },
    {
      "anonymous": false,
      "inputs": [
        {
          "indexed": true,
          "internalType": "address",
          "name": "owner",
          "type": "address"
        },
        {
          "indexed": true,
          "internalType": "address",
          "name": "spender",
          "type": "address"
        },
        {
          "indexed": false,
          "internalType": "uint256",
          "name": "value",
          "type": "uint256"
        }
      ],
      "name": "Approval",
      "type": "event"
    },
    {
      "anonymous": false,
      "inputs": [
        {
          "indexed": true,
          "internalType": "address",
          "name": "from",
          "type": "address"
        },
        {
          "indexed": true,
          "internalType": "address",
          "name": "to",
          "type": "address"
        },
        {
          "indexed": false,
          "internalType": "uint256",
          "name": "value",
          "type": "uint256"
        }
      ],
      "name": "Transfer",
      "type": "event"
    },
    {
      "constant": true,
      "inputs": [
        {
          "internalType": "address",
          "name": "owner",
          "type": "address"
        },
        {
          "internalType": "address",
          "name": "spender",
          "type": "address"
        }
      ],
      "name": "allowance",
      "outputs": [
        {
          "internalType": "uint256",
          "name": "",
          "type": "uint256"
        }
      ],
      "payable": false,
      "stateMutability": "view",
      "type": "function"
    },
    {
      "constant": false,
      "inputs": [
        {
          "internalType": "address",
          "name": "spender",
          "type": "address"
        },
        {
          "internalType": "uint256",
          "name": "value",
          "type": "uint256"
        }
      ],
      "name": "approve",
      "outputs": [
        {
          "internalType": "bool",
          "name": "",
          "type": "bool"
        }
      ],
      "payable": false,
      "stateMutability": "nonpayable",
      "type": "function"
    },
    {
      "constant": true,
      "inputs": [
        {
          "internalType": "address",
          "name": "account",
          "type": "address"
        }
      ],
      "name": "balanceOf",
      "outputs": [
        {
          "internalType": "uint256",
          "name": "",
          "type": "uint256"
        }
      ],
      "payable": false,
      "stateMutability": "view",
      "type": "function"
    },
    {
      "constant": true,
      "inputs": [],
      "name": "decimals",
      "outputs": [
        {
          "internalType": "uint8",
          "name": "",
          "type": "uint8"
        }
      ],
      "payable": false,
      "stateMutability": "view",
      "type": "function"
    },
    {
      "constant": true,
      "inputs": [],
      "name": "name",
      "outputs": [
        {
          "internalType": "string",
          "name": "",
          "type": "string"
        }
      ],
      "payable": false,
      "stateMutability": "view",
      "type": "function"
    },
    {
      "constant": true,
      "inputs": [],
      "name": "symbol",
      "outputs": [
        {
          "internalType": "string",
          "name": "",
          "type": "string"
        }
      ],
      "payable": false,
      "stateMutability": "view",
      "type": "function"
    },
    {
      "constant": true,
      "inputs": [],
      "name": "totalSupply",
      "outputs": [
        {
          "internalType": "uint256",
          "name": "",
          "type": "uint256"
        }
      ],
      "payable": false,
      "stateMutability": "view",
      "type": "function"
    },
    {
      "constant": false,
      "inputs": [
        {
          "internalType": "address",
          "name": "sender",
          "type": "address"
        },
        {
          "internalType": "address",
          "name": "recipient",
          "type": "address"
        },
        {
          "internalType": "uint256",
          "name": "amount",
          "type": "uint256"
        }
      ],
      "name": "transferFrom",
      "outputs": [
        {
          "internalType": "bool",
          "name": "",
          "type": "bool"
        }
      ],
      "payable": false,
      "stateMutability": "nonpayable",
      "type": "function"
    },
    {
      "constant": true,
      "inputs": [],
      "name": "distributionCap",
      "outputs": [
        {
          "internalType": "uint256",
          "name": "",
          "type": "uint256"
        }
      ],
      "payable": false,
      "stateMutability": "view",
      "type": "function"
    },
    {
      "constant": false,
      "inputs": [
        {
          "internalType": "address",
          "name": "recipient",
          "type": "address"
        },
        {
          "internalType": "uint256",
          "name": "amount",
          "type": "uint256"
        }
      ],
      "name": "transfer",
      "outputs": [
        {
          "internalType": "bool",
          "name": "",
          "type": "bool"
        }
      ],
      "payable": false,
      "stateMutability": "nonpayable",
      "type": "function"
    },
    {
      "constant": false,
      "inputs": [
        {
          "internalType": "address",
          "name": "spender",
          "type": "address"
        },
        {
          "internalType": "uint256",
          "name": "addedValue",
          "type": "uint256"
        }
      ],
      "name": "increaseAllowance",
      "outputs": [
        {
          "internalType": "bool",
          "name": "",
          "type": "bool"
        }
      ],
      "payable": false,
      "stateMutability": "nonpayable",
      "type": "function"
    },
    {
      "constant": false,
      "inputs": [
        {
          "internalType": "address",
          "name": "spender",
          "type": "address"
        },
        {
          "internalType": "uint256",
          "name": "subtractedValue",
          "type": "uint256"
        }
      ],
      "name": "decreaseAllowance",
      "outputs": [
        {
          "internalType": "bool",
          "name": "",
          "type": "bool"
        }
      ],
      "payable": false,
      "stateMutability": "nonpayable",
      "type": "function"
    },
    {
      "constant": false,
      "inputs": [
        {
          "internalType": "uint256",
          "name": "tokenAmount",
          "type": "uint256"
        }
      ],
      "name": "redistribute",
      "outputs": [
        {
          "internalType": "bool",
          "name": "",
          "type": "bool"
        }
      ],
      "payable": false,
      "stateMutability": "nonpayable",
      "type": "function"
    }
  ],
  "bytecode": "0x60806040523480156200001157600080fd5b50d380156200001f57600080fd5b50d280156200002d57600080fd5b506040518060400160405280600581526020017f4e657449780000000000000000000000000000000000000000000000000000008152506040518060400160405280600381526020017f4e5458000000000000000000000000000000000000000000000000000000000081525060068260039080519060200190620000b4929190620009c9565b508160049080519060200190620000cd929190620009c9565b5080600560006101000a81548160ff021916908360ff16021790555050505033600560016101000a81548173ffffffffffffffffffffffffffffffffffffffff021916908373ffffffffffffffffffffffffffffffffffffffff160217905550620001593362000142620002a060201b60201c565b60ff16600a0a62e4e1c002620002b760201b60201c565b6200019a744135a1ca2155b0b4fa618f394c63e6115406eb407062000183620002a060201b60201c565b60ff16600a0a6216e360026200048160201b60201c565b50620001dc7441bd3515a2992ddb6fe38b94a3db0740abe5be7a51620001c5620002a060201b60201c565b60ff16600a0a620b71b0026200048160201b60201c565b506200021e7441a8cfb0b2eaa2a320e21438a72cad8de6668d1a2f62000207620002a060201b60201c565b60ff16600a0a620493e0026200048160201b60201c565b50620002607441218ac26affba0ed5a6872436d610157a9afe015a62000249620002a060201b60201c565b60ff16600a0a6206ddd0026200048160201b60201c565b5062000294600560019054906101000a900473ffffffffffffffffffffffffffffffffffffffff16620005a160201b60201c565b60068190555062000a78565b6000600560009054906101000a900460ff16905090565b600073ffffffffffffffffffffffffffffffffffffffff168273ffffffffffffffffffffffffffffffffffffffff1614156200035b576040517f08c379a000000000000000000000000000000000000000000000000000000000815260040180806020018281038252601f8152602001807f45524332303a206d696e7420746f20746865207a65726f20616464726573730081525060200191505060405180910390fd5b6200037781600254620005e960201b6200124e1790919060201c565b600281905550620003d5816000808573ffffffffffffffffffffffffffffffffffffffff1673ffffffffffffffffffffffffffffffffffffffff16815260200190815260200160002054620005e960201b6200124e1790919060201c565b6000808473ffffffffffffffffffffffffffffffffffffffff1673ffffffffffffffffffffffffffffffffffffffff168152602001908152602001600020819055508173ffffffffffffffffffffffffffffffffffffffff16600073ffffffffffffffffffffffffffffffffffffffff167fddf252ad1be2c89b69c2b068fc378daa952ba7f163c4a11628f55a4df523b3ef836040518082815260200191505060405180910390a35050565b6000600560019054906101000a900473ffffffffffffffffffffffffffffffffffffffff1673ffffffffffffffffffffffffffffffffffffffff163373ffffffffffffffffffffffffffffffffffffffff1614156200058257600654620005298362000515600560019054906101000a900473ffffffffffffffffffffffffffffffffffffffff16620005a160201b60201c565b6200067260201b620010641790919060201c565b1162000581576040517f08c379a000000000000000000000000000000000000000000000000000000000815260040180806020018281038252602281526020018062001ebc6022913960400191505060405180910390fd5b5b620005998383620006fc60201b620012371760201c565b905092915050565b60008060008373ffffffffffffffffffffffffffffffffffffffff1673ffffffffffffffffffffffffffffffffffffffff168152602001908152602001600020549050919050565b60008082840190508381101562000668576040517f08c379a000000000000000000000000000000000000000000000000000000000815260040180806020018281038252601b8152602001807f536166654d6174683a206164646974696f6e206f766572666c6f77000000000081525060200191505060405180910390fd5b8091505092915050565b600082821115620006eb576040517f08c379a000000000000000000000000000000000000000000000000000000000815260040180806020018281038252601e8152602001807f536166654d6174683a207375627472616374696f6e206f766572666c6f77000081525060200191505060405180910390fd5b600082840390508091505092915050565b6000620007113384846200071b60201b60201c565b6001905092915050565b600073ffffffffffffffffffffffffffffffffffffffff168373ffffffffffffffffffffffffffffffffffffffff161415620007a3576040517f08c379a000000000000000000000000000000000000000000000000000000000815260040180806020018281038252602581526020018062001ede6025913960400191505060405180910390fd5b600073ffffffffffffffffffffffffffffffffffffffff168273ffffffffffffffffffffffffffffffffffffffff1614156200082b576040517f08c379a000000000000000000000000000000000000000000000000000000000815260040180806020018281038252602381526020018062001e996023913960400191505060405180910390fd5b62000883816000808673ffffffffffffffffffffffffffffffffffffffff1673ffffffffffffffffffffffffffffffffffffffff168152602001908152602001600020546200067260201b620010641790919060201c565b6000808573ffffffffffffffffffffffffffffffffffffffff1673ffffffffffffffffffffffffffffffffffffffff168152602001908152602001600020819055506200091d816000808573ffffffffffffffffffffffffffffffffffffffff1673ffffffffffffffffffffffffffffffffffffffff16815260200190815260200160002054620005e960201b6200124e1790919060201c565b6000808473ffffffffffffffffffffffffffffffffffffffff1673ffffffffffffffffffffffffffffffffffffffff168152602001908152602001600020819055508173ffffffffffffffffffffffffffffffffffffffff168373ffffffffffffffffffffffffffffffffffffffff167fddf252ad1be2c89b69c2b068fc378daa952ba7f163c4a11628f55a4df523b3ef836040518082815260200191505060405180910390a3505050565b828054600181600116156101000203166002900490600052602060002090601f016020900481019282601f1062000a0c57805160ff191683800117855562000a3d565b8280016001018555821562000a3d579182015b8281111562000a3c57825182559160200191906001019062000a1f565b5b50905062000a4c919062000a50565b5090565b62000a7591905b8082111562000a7157600081600090555060010162000a57565b5090565b90565b6114118062000a886000396000f3fe608060405234801561001057600080fd5b50d3801561001d57600080fd5b50d2801561002a57600080fd5b50600436106100e95760003560e01c806370a08231116100a6578063a457c2d711610080578063a457c2d714610426578063a9059cbb1461048c578063cd63d930146104f2578063dd62ed3e14610510576100e9565b806370a082311461030557806395d89b411461035d578063a0ce552d146103e0576100e9565b806306fdde03146100ee578063095ea7b31461017157806318160ddd146101d757806323b872dd146101f5578063313ce5671461027b578063395093511461029f575b600080fd5b6100f6610588565b6040518080602001828103825283818151815260200191508051906020019080838360005b8381101561013657808201518184015260208101905061011b565b50505050905090810190601f1680156101635780820380516001836020036101000a031916815260200191505b509250505060405180910390f35b6101bd6004803603604081101561018757600080fd5b81019080803573ffffffffffffffffffffffffffffffffffffffff1690602001909291908035906020019092919050505061062a565b604051808215151515815260200191505060405180910390f35b6101df610641565b6040518082815260200191505060405180910390f35b6102616004803603606081101561020b57600080fd5b81019080803573ffffffffffffffffffffffffffffffffffffffff169060200190929190803573ffffffffffffffffffffffffffffffffffffffff1690602001909291908035906020019092919050505061064b565b604051808215151515815260200191505060405180910390f35b6102836106fc565b604051808260ff1660ff16815260200191505060405180910390f35b6102eb600480360360408110156102b557600080fd5b81019080803573ffffffffffffffffffffffffffffffffffffffff16906020019092919080359060200190929190505050610713565b604051808215151515815260200191505060405180910390f35b6103476004803603602081101561031b57600080fd5b81019080803573ffffffffffffffffffffffffffffffffffffffff1690602001909291905050506107ce565b6040518082815260200191505060405180910390f35b610365610816565b6040518080602001828103825283818151815260200191508051906020019080838360005b838110156103a557808201518184015260208101905061038a565b50505050905090810190601f1680156103d25780820380516001836020036101000a031916815260200191505b509250505060405180910390f35b61040c600480360360208110156103f657600080fd5b81019080803590602001909291905050506108b8565b604051808215151515815260200191505060405180910390f35b6104726004803603604081101561043c57600080fd5b81019080803573ffffffffffffffffffffffffffffffffffffffff16906020019092919080359060200190929190505050610984565b604051808215151515815260200191505060405180910390f35b6104d8600480360360408110156104a257600080fd5b81019080803573ffffffffffffffffffffffffffffffffffffffff16906020019092919080359060200190929190505050610a3f565b604051808215151515815260200191505060405180910390f35b6104fa610b40565b6040518082815260200191505060405180910390f35b6105726004803603604081101561052657600080fd5b81019080803573ffffffffffffffffffffffffffffffffffffffff169060200190929190803573ffffffffffffffffffffffffffffffffffffffff169060200190929190505050610b4a565b6040518082815260200191505060405180910390f35b606060038054600181600116156101000203166002900480601f0160208091040260200160405190810160405280929190818152602001828054600181600116156101000203166002900480156106205780601f106105f557610100808354040283529160200191610620565b820191906000526020600020905b81548152906001019060200180831161060357829003601f168201915b5050505050905090565b6000610637338484610bd1565b6001905092915050565b6000600254905090565b6000610658848484610dc8565b6106f184336106ec85600160008a73ffffffffffffffffffffffffffffffffffffffff1673ffffffffffffffffffffffffffffffffffffffff16815260200190815260200160002060003373ffffffffffffffffffffffffffffffffffffffff1673ffffffffffffffffffffffffffffffffffffffff1681526020019081526020016000205461106490919063ffffffff16565b610bd1565b600190509392505050565b6000600560009054906101000a900460ff16905090565b6000600560019054906101000a900473ffffffffffffffffffffffffffffffffffffffff1673ffffffffffffffffffffffffffffffffffffffff163373ffffffffffffffffffffffffffffffffffffffff1614156107bc576040517f08c379a000000000000000000000000000000000000000000000000000000000815260040180806020018281038252603281526020018061131c6032913960400191505060405180910390fd5b6107c683836110ed565b905092915050565b60008060008373ffffffffffffffffffffffffffffffffffffffff1673ffffffffffffffffffffffffffffffffffffffff168152602001908152602001600020549050919050565b606060048054600181600116156101000203166002900480601f0160208091040260200160405190810160405280929190818152602001828054600181600116156101000203166002900480156108ae5780601f10610883576101008083540402835291602001916108ae565b820191906000526020600020905b81548152906001019060200180831161089157829003601f168201915b5050505050905090565b6000600560019054906101000a900473ffffffffffffffffffffffffffffffffffffffff1673ffffffffffffffffffffffffffffffffffffffff163373ffffffffffffffffffffffffffffffffffffffff1614610960576040517f08c379a00000000000000000000000000000000000000000000000000000000081526004018080602001828103825260258152602001806113b96025913960400191505060405180910390fd5b6109758260065461106490919063ffffffff16565b60068190555060019050919050565b6000600560019054906101000a900473ffffffffffffffffffffffffffffffffffffffff1673ffffffffffffffffffffffffffffffffffffffff163373ffffffffffffffffffffffffffffffffffffffff161415610a2d576040517f08c379a000000000000000000000000000000000000000000000000000000000815260040180806020018281038252603281526020018061131c6032913960400191505060405180910390fd5b610a378383611192565b905092915050565b6000600560019054906101000a900473ffffffffffffffffffffffffffffffffffffffff1673ffffffffffffffffffffffffffffffffffffffff163373ffffffffffffffffffffffffffffffffffffffff161415610b2e57600654610ad783610ac9600560019054906101000a900473ffffffffffffffffffffffffffffffffffffffff166107ce565b61106490919063ffffffff16565b11610b2d576040517f08c379a000000000000000000000000000000000000000000000000000000000815260040180806020018281038252602281526020018061134e6022913960400191505060405180910390fd5b5b610b388383611237565b905092915050565b6000600654905090565b6000600160008473ffffffffffffffffffffffffffffffffffffffff1673ffffffffffffffffffffffffffffffffffffffff16815260200190815260200160002060008373ffffffffffffffffffffffffffffffffffffffff1673ffffffffffffffffffffffffffffffffffffffff16815260200190815260200160002054905092915050565b600073ffffffffffffffffffffffffffffffffffffffff168373ffffffffffffffffffffffffffffffffffffffff161415610c57576040517f08c379a00000000000000000000000000000000000000000000000000000000081526004018080602001828103825260248152602001806113956024913960400191505060405180910390fd5b600073ffffffffffffffffffffffffffffffffffffffff168273ffffffffffffffffffffffffffffffffffffffff161415610cdd576040517f08c379a00000000000000000000000000000000000000000000000000000000081526004018080602001828103825260228152602001806112fa6022913960400191505060405180910390fd5b80600160008573ffffffffffffffffffffffffffffffffffffffff1673ffffffffffffffffffffffffffffffffffffffff16815260200190815260200160002060008473ffffffffffffffffffffffffffffffffffffffff1673ffffffffffffffffffffffffffffffffffffffff168152602001908152602001600020819055508173ffffffffffffffffffffffffffffffffffffffff168373ffffffffffffffffffffffffffffffffffffffff167f8c5be1e5ebec7d5bd14f71427d1e84f3dd0314c0f7b2291e5b200ac8c7c3b925836040518082815260200191505060405180910390a3505050565b600073ffffffffffffffffffffffffffffffffffffffff168373ffffffffffffffffffffffffffffffffffffffff161415610e4e576040517f08c379a00000000000000000000000000000000000000000000000000000000081526004018080602001828103825260258152602001806113706025913960400191505060405180910390fd5b600073ffffffffffffffffffffffffffffffffffffffff168273ffffffffffffffffffffffffffffffffffffffff161415610ed4576040517f08c379a00000000000000000000000000000000000000000000000000000000081526004018080602001828103825260238152602001806112d76023913960400191505060405180910390fd5b610f25816000808673ffffffffffffffffffffffffffffffffffffffff1673ffffffffffffffffffffffffffffffffffffffff1681526020019081526020016000205461106490919063ffffffff16565b6000808573ffffffffffffffffffffffffffffffffffffffff1673ffffffffffffffffffffffffffffffffffffffff16815260200190815260200160002081905550610fb8816000808573ffffffffffffffffffffffffffffffffffffffff1673ffffffffffffffffffffffffffffffffffffffff1681526020019081526020016000205461124e90919063ffffffff16565b6000808473ffffffffffffffffffffffffffffffffffffffff1673ffffffffffffffffffffffffffffffffffffffff168152602001908152602001600020819055508173ffffffffffffffffffffffffffffffffffffffff168373ffffffffffffffffffffffffffffffffffffffff167fddf252ad1be2c89b69c2b068fc378daa952ba7f163c4a11628f55a4df523b3ef836040518082815260200191505060405180910390a3505050565b6000828211156110dc576040517f08c379a000000000000000000000000000000000000000000000000000000000815260040180806020018281038252601e8152602001807f536166654d6174683a207375627472616374696f6e206f766572666c6f77000081525060200191505060405180910390fd5b600082840390508091505092915050565b6000611188338461118385600160003373ffffffffffffffffffffffffffffffffffffffff1673ffffffffffffffffffffffffffffffffffffffff16815260200190815260200160002060008973ffffffffffffffffffffffffffffffffffffffff1673ffffffffffffffffffffffffffffffffffffffff1681526020019081526020016000205461124e90919063ffffffff16565b610bd1565b6001905092915050565b600061122d338461122885600160003373ffffffffffffffffffffffffffffffffffffffff1673ffffffffffffffffffffffffffffffffffffffff16815260200190815260200160002060008973ffffffffffffffffffffffffffffffffffffffff1673ffffffffffffffffffffffffffffffffffffffff1681526020019081526020016000205461106490919063ffffffff16565b610bd1565b6001905092915050565b6000611244338484610dc8565b6001905092915050565b6000808284019050838110156112cc576040517f08c379a000000000000000000000000000000000000000000000000000000000815260040180806020018281038252601b8152602001807f536166654d6174683a206164646974696f6e206f766572666c6f77000000000081525060200191505060405180910390fd5b809150509291505056fe45524332303a207472616e7366657220746f20746865207a65726f206164647265737345524332303a20617070726f766520746f20746865207a65726f2061646472657373636f6e7472616374206f776e6572206973206e6f7420617574686f72697a656420746f206861766520616c6c6f77616e636567726561746572207468616e20646973747269627574696f6e20636170696369747945524332303a207472616e736665722066726f6d20746865207a65726f206164647265737345524332303a20617070726f76652066726f6d20746865207a65726f20616464726573736f6e6c792074686520636f6e7472616374206f776e657220697320617574686f72697a6564a26474726f6e58201c47439ceeceef8d5f9fdd5080d08798229c2f2bf8b5a0699991d920ad43a5ea64736f6c634300050f003145524332303a207472616e7366657220746f20746865207a65726f206164647265737367726561746572207468616e20646973747269627574696f6e20636170696369747945524332303a207472616e736665722066726f6d20746865207a65726f2061646472657373",
  "source": "// 0.5.1-c8a2\n// Enable optimization\npragma solidity ^0.5.0;\n\nimport \"./ERC20.sol\";\nimport \"./ERC20Detailed.sol\";\n\n/**\n * @title SimpleToken\n * @dev Very simple ERC20 Token example, where all tokens are pre-assigned to the creator.\n * Note they can later distribute these tokens as they wish using `transfer` and other\n * `ERC20` functions.\n */\ncontract NetIx is ERC20, ERC20Detailed {\n\n    address private contractOwner;\n    uint256 private _distributionCap;\n\n    /**\n     * @dev Constructor that gives msg.sender all of existing tokens.\n     */\n    constructor () public ERC20Detailed(\"NetIx\", \"NTX\", 6) {\n        contractOwner = msg.sender;\n        _mint(msg.sender, 15000000 * (10 ** uint256(decimals())));\n        transfer(address(0x4135a1ca2155b0b4fa618f394c63e6115406eb4070), 1500000 * (10 ** uint256(decimals()))); // founders share\n        transfer(address(0x41BD3515A2992DDB6FE38B94A3DB0740ABE5BE7A51), 750000 * (10 ** uint256(decimals()))); // teams share\n        transfer(address(0x41A8CFB0B2EAA2A320E21438A72CAD8DE6668D1A2F), 300000 * (10 ** uint256(decimals()))); // counsultors share\n        transfer(address(0x41218AC26AFFBA0ED5A6872436D610157A9AFE015A), 450000 * (10 ** uint256(decimals()))); // partners share\n        _distributionCap = balanceOf(contractOwner);\n    }\n\n    function distributionCap() public view returns(uint256) {\n        return _distributionCap;\n    }\n\n    function transfer(address recipient, uint256 amount) public returns (bool) {\n        if (msg.sender == contractOwner) {\n            require(balanceOf(contractOwner).sub(amount) > _distributionCap, \"greater than distribution capicity\");\n        }\n        return super.transfer(recipient, amount);\n    }\n\n    function increaseAllowance(address spender, uint256 addedValue) public returns (bool) {\n        require (msg.sender != contractOwner, \"contract owner is not authorized to have allowance\");\n        return super.increaseAllowance(spender, addedValue);\n    }\n\n    function decreaseAllowance(address spender, uint256 subtractedValue) public returns (bool) {\n        require (msg.sender != contractOwner, \"contract owner is not authorized to have allowance\");\n        return super.decreaseAllowance(spender, subtractedValue);\n    }\n\n    function redistribute(uint256 tokenAmount) public returns (bool) {\n        require (msg.sender == contractOwner, \"only the contract owner is authorized\");\n        _distributionCap = _distributionCap.sub(tokenAmount);\n        return true;\n    }\n\n}",
  "sourcePath": "/var/www/html/netixgroup.com/blockchain/contracts/Token.sol",
  "compiler": {
    "name": "solc",
    "version": "0.5.15+commit.fd7f48cf.Emscripten.clang"
  },
  "schemaVersion": "2.0.1",
  "updatedAt": "2021-07-21T20:49:37.502Z"
}