{
  "contractName": "Token",
  "abi": [
    {
      "inputs": [],
      "payable": false,
      "stateMutability": "nonpayable",
      "type": "constructor"
    },
    {
      "anonymous": false,
      "inputs": [
        {
          "indexed": true,
          "internalType": "address",
          "name": "owner",
          "type": "address"
        },
        {
          "indexed": true,
          "internalType": "address",
          "name": "spender",
          "type": "address"
        },
        {
          "indexed": false,
          "internalType": "uint256",
          "name": "value",
          "type": "uint256"
        }
      ],
      "name": "Approval",
      "type": "event"
    },
    {
      "anonymous": false,
      "inputs": [
        {
          "indexed": false,
          "internalType": "uint256",
          "name": "amount",
          "type": "uint256"
        },
        {
          "indexed": false,
          "internalType": "uint256",
          "name": "startTime",
          "type": "uint256"
        },
        {
          "indexed": false,
          "internalType": "uint256",
          "name": "endTime",
          "type": "uint256"
        }
      ],
      "name": "Redistribution",
      "type": "event"
    },
    {
      "anonymous": false,
      "inputs": [
        {
          "indexed": true,
          "internalType": "address",
          "name": "from",
          "type": "address"
        },
        {
          "indexed": true,
          "internalType": "address",
          "name": "to",
          "type": "address"
        },
        {
          "indexed": false,
          "internalType": "uint256",
          "name": "value",
          "type": "uint256"
        }
      ],
      "name": "Transfer",
      "type": "event"
    },
    {
      "constant": true,
      "inputs": [
        {
          "internalType": "address",
          "name": "owner",
          "type": "address"
        },
        {
          "internalType": "address",
          "name": "spender",
          "type": "address"
        }
      ],
      "name": "allowance",
      "outputs": [
        {
          "internalType": "uint256",
          "name": "",
          "type": "uint256"
        }
      ],
      "payable": false,
      "stateMutability": "view",
      "type": "function"
    },
    {
      "constant": true,
      "inputs": [
        {
          "internalType": "address",
          "name": "account",
          "type": "address"
        }
      ],
      "name": "balanceOf",
      "outputs": [
        {
          "internalType": "uint256",
          "name": "",
          "type": "uint256"
        }
      ],
      "payable": false,
      "stateMutability": "view",
      "type": "function"
    },
    {
      "constant": true,
      "inputs": [],
      "name": "currentDistribution",
      "outputs": [
        {
          "internalType": "uint256",
          "name": "amount",
          "type": "uint256"
        },
        {
          "internalType": "uint256",
          "name": "startTime",
          "type": "uint256"
        },
        {
          "internalType": "uint256",
          "name": "endTime",
          "type": "uint256"
        }
      ],
      "payable": false,
      "stateMutability": "view",
      "type": "function"
    },
    {
      "constant": true,
      "inputs": [],
      "name": "decimals",
      "outputs": [
        {
          "internalType": "uint8",
          "name": "",
          "type": "uint8"
        }
      ],
      "payable": false,
      "stateMutability": "view",
      "type": "function"
    },
    {
      "constant": true,
      "inputs": [
        {
          "internalType": "address",
          "name": "account",
          "type": "address"
        }
      ],
      "name": "lockedBalanceOf",
      "outputs": [
        {
          "internalType": "uint256",
          "name": "amount",
          "type": "uint256"
        },
        {
          "internalType": "uint256",
          "name": "endTime",
          "type": "uint256"
        }
      ],
      "payable": false,
      "stateMutability": "view",
      "type": "function"
    },
    {
      "constant": true,
      "inputs": [],
      "name": "name",
      "outputs": [
        {
          "internalType": "string",
          "name": "",
          "type": "string"
        }
      ],
      "payable": false,
      "stateMutability": "view",
      "type": "function"
    },
    {
      "constant": false,
      "inputs": [
        {
          "internalType": "uint256",
          "name": "tokenAmount",
          "type": "uint256"
        },
        {
          "internalType": "uint256",
          "name": "time",
          "type": "uint256"
        }
      ],
      "name": "redistribute",
      "outputs": [
        {
          "internalType": "bool",
          "name": "",
          "type": "bool"
        }
      ],
      "payable": false,
      "stateMutability": "nonpayable",
      "type": "function"
    },
    {
      "constant": true,
      "inputs": [],
      "name": "symbol",
      "outputs": [
        {
          "internalType": "string",
          "name": "",
          "type": "string"
        }
      ],
      "payable": false,
      "stateMutability": "view",
      "type": "function"
    },
    {
      "constant": true,
      "inputs": [],
      "name": "totalSupply",
      "outputs": [
        {
          "internalType": "uint256",
          "name": "",
          "type": "uint256"
        }
      ],
      "payable": false,
      "stateMutability": "view",
      "type": "function"
    },
    {
      "constant": false,
      "inputs": [
        {
          "internalType": "address",
          "name": "sender",
          "type": "address"
        },
        {
          "internalType": "address",
          "name": "recipient",
          "type": "address"
        },
        {
          "internalType": "uint256",
          "name": "amount",
          "type": "uint256"
        }
      ],
      "name": "transferFrom",
      "outputs": [
        {
          "internalType": "bool",
          "name": "",
          "type": "bool"
        }
      ],
      "payable": false,
      "stateMutability": "nonpayable",
      "type": "function"
    },
    {
      "constant": false,
      "inputs": [
        {
          "internalType": "address",
          "name": "spender",
          "type": "address"
        },
        {
          "internalType": "uint256",
          "name": "addedValue",
          "type": "uint256"
        }
      ],
      "name": "approve",
      "outputs": [
        {
          "internalType": "bool",
          "name": "",
          "type": "bool"
        }
      ],
      "payable": false,
      "stateMutability": "nonpayable",
      "type": "function"
    },
    {
      "constant": false,
      "inputs": [
        {
          "internalType": "address",
          "name": "spender",
          "type": "address"
        },
        {
          "internalType": "uint256",
          "name": "addedValue",
          "type": "uint256"
        }
      ],
      "name": "increaseAllowance",
      "outputs": [
        {
          "internalType": "bool",
          "name": "",
          "type": "bool"
        }
      ],
      "payable": false,
      "stateMutability": "nonpayable",
      "type": "function"
    },
    {
      "constant": false,
      "inputs": [
        {
          "internalType": "address",
          "name": "spender",
          "type": "address"
        },
        {
          "internalType": "uint256",
          "name": "subtractedValue",
          "type": "uint256"
        }
      ],
      "name": "decreaseAllowance",
      "outputs": [
        {
          "internalType": "bool",
          "name": "",
          "type": "bool"
        }
      ],
      "payable": false,
      "stateMutability": "nonpayable",
      "type": "function"
    },
    {
      "constant": false,
      "inputs": [
        {
          "internalType": "address",
          "name": "recipient",
          "type": "address"
        },
        {
          "internalType": "uint256",
          "name": "amount",
          "type": "uint256"
        }
      ],
      "name": "transfer",
      "outputs": [
        {
          "internalType": "bool",
          "name": "",
          "type": "bool"
        }
      ],
      "payable": false,
      "stateMutability": "nonpayable",
      "type": "function"
    }
  ],
  "bytecode": "0x60806040523480156200001157600080fd5b50d380156200001f57600080fd5b50d280156200002d57600080fd5b506040518060400160405280600581526020017f4e657449780000000000000000000000000000000000000000000000000000008152506040518060400160405280600381526020017f4e5458000000000000000000000000000000000000000000000000000000000081525060068260039080519060200190620000b492919062000a44565b508160049080519060200190620000cd92919062000a44565b5080600560006101000a81548160ff021916908360ff16021790555050505033600560016101000a81548173ffffffffffffffffffffffffffffffffffffffff021916908373ffffffffffffffffffffffffffffffffffffffff1602179055506200015933620001426200026760201b60201c565b60ff16600a0a62e4e1c0026200027e60201b60201c565b6200019b33744161aa39fcd83e05725b0381758349a30b9cf4b423620001846200026760201b60201c565b60ff16600a0a6216e360026200044860201b60201c565b620001dd337441e87aa3e648c1a207fc0985053bb28fb614c44293620001c66200026760201b60201c565b60ff16600a0a620b71b0026200044860201b60201c565b6200021f3374417ccb36b0abca9c2ca189842eeca679f3d9a7a607620002086200026760201b60201c565b60ff16600a0a620493e0026200044860201b60201c565b62000261337441016bf3b2244db9465ecd7302cf819507d0aed8806200024a6200026760201b60201c565b60ff16600a0a6206ddd0026200044860201b60201c565b62000af3565b6000600560009054906101000a900460ff16905090565b600073ffffffffffffffffffffffffffffffffffffffff168273ffffffffffffffffffffffffffffffffffffffff16141562000322576040517f08c379a000000000000000000000000000000000000000000000000000000000815260040180806020018281038252601f8152602001807f45524332303a206d696e7420746f20746865207a65726f20616464726573730081525060200191505060405180910390fd5b6200033e816002546200055c60201b620018dc1790919060201c565b6002819055506200039c816000808573ffffffffffffffffffffffffffffffffffffffff1673ffffffffffffffffffffffffffffffffffffffff168152602001908152602001600020546200055c60201b620018dc1790919060201c565b6000808473ffffffffffffffffffffffffffffffffffffffff1673ffffffffffffffffffffffffffffffffffffffff168152602001908152602001600020819055508173ffffffffffffffffffffffffffffffffffffffff16600073ffffffffffffffffffffffffffffffffffffffff167fddf252ad1be2c89b69c2b068fc378daa952ba7f163c4a11628f55a4df523b3ef836040518082815260200191505060405180910390a35050565b82816200045b82620005e560201b60201c565b600960008373ffffffffffffffffffffffffffffffffffffffff1673ffffffffffffffffffffffffffffffffffffffff16815260200190815260200160002060000154620004c882620004b485620006c460201b60201c565b6200070c60201b620011811790919060201c565b10156200053d576040517f08c379a000000000000000000000000000000000000000000000000000000000815260040180806020018281038252601d8152602001807f696e73756666696369656e7420756e6c6f636b65642062616c616e636500000081525060200191505060405180910390fd5b620005558585856200079660201b620016401760201c565b5050505050565b600080828401905083811015620005db576040517f08c379a000000000000000000000000000000000000000000000000000000000815260040180806020018281038252601b8152602001807f536166654d6174683a206164646974696f6e206f766572666c6f77000000000081525060200191505060405180910390fd5b8091505092915050565b42600960008373ffffffffffffffffffffffffffffffffffffffff1673ffffffffffffffffffffffffffffffffffffffff168152602001908152602001600020600101541015620006c1576000600960008373ffffffffffffffffffffffffffffffffffffffff1673ffffffffffffffffffffffffffffffffffffffff168152602001908152602001600020600101819055506000600960008373ffffffffffffffffffffffffffffffffffffffff1673ffffffffffffffffffffffffffffffffffffffff168152602001908152602001600020600001819055505b50565b60008060008373ffffffffffffffffffffffffffffffffffffffff1673ffffffffffffffffffffffffffffffffffffffff168152602001908152602001600020549050919050565b60008282111562000785576040517f08c379a000000000000000000000000000000000000000000000000000000000815260040180806020018281038252601e8152602001807f536166654d6174683a207375627472616374696f6e206f766572666c6f77000081525060200191505060405180910390fd5b600082840390508091505092915050565b600073ffffffffffffffffffffffffffffffffffffffff168373ffffffffffffffffffffffffffffffffffffffff1614156200081e576040517f08c379a0000000000000000000000000000000000000000000000000000000008152600401808060200182810382526025815260200180620025956025913960400191505060405180910390fd5b600073ffffffffffffffffffffffffffffffffffffffff168273ffffffffffffffffffffffffffffffffffffffff161415620008a6576040517f08c379a0000000000000000000000000000000000000000000000000000000008152600401808060200182810382526023815260200180620025726023913960400191505060405180910390fd5b620008fe816000808673ffffffffffffffffffffffffffffffffffffffff1673ffffffffffffffffffffffffffffffffffffffff168152602001908152602001600020546200070c60201b620011811790919060201c565b6000808573ffffffffffffffffffffffffffffffffffffffff1673ffffffffffffffffffffffffffffffffffffffff1681526020019081526020016000208190555062000998816000808573ffffffffffffffffffffffffffffffffffffffff1673ffffffffffffffffffffffffffffffffffffffff168152602001908152602001600020546200055c60201b620018dc1790919060201c565b6000808473ffffffffffffffffffffffffffffffffffffffff1673ffffffffffffffffffffffffffffffffffffffff168152602001908152602001600020819055508173ffffffffffffffffffffffffffffffffffffffff168373ffffffffffffffffffffffffffffffffffffffff167fddf252ad1be2c89b69c2b068fc378daa952ba7f163c4a11628f55a4df523b3ef836040518082815260200191505060405180910390a3505050565b828054600181600116156101000203166002900490600052602060002090601f016020900481019282601f1062000a8757805160ff191683800117855562000ab8565b8280016001018555821562000ab8579182015b8281111562000ab757825182559160200191906001019062000a9a565b5b50905062000ac7919062000acb565b5090565b62000af091905b8082111562000aec57600081600090555060010162000ad2565b5090565b90565b611a6f8062000b036000396000f3fe608060405234801561001057600080fd5b50d3801561001d57600080fd5b50d2801561002a57600080fd5b50600436106101045760003560e01c80634c80f2c3116100a657806395d89b411161008057806395d89b4114610453578063a457c2d7146104d6578063a9059cbb1461053c578063dd62ed3e146105a257610104565b80634c80f2c31461034c578063593557361461039c57806370a08231146103fb57610104565b806323b872dd116100e257806323b872dd14610210578063313ce5671461029657806339509351146102ba57806348ced6a71461032057610104565b806306fdde0314610109578063095ea7b31461018c57806318160ddd146101f2575b600080fd5b61011161061a565b6040518080602001828103825283818151815260200191508051906020019080838360005b83811015610151578082015181840152602081019050610136565b50505050905090810190601f16801561017e5780820380516001836020036101000a031916815260200191505b509250505060405180910390f35b6101d8600480360360408110156101a257600080fd5b81019080803573ffffffffffffffffffffffffffffffffffffffff169060200190929190803590602001909291905050506106bc565b604051808215151515815260200191505060405180910390f35b6101fa610794565b6040518082815260200191505060405180910390f35b61027c6004803603606081101561022657600080fd5b81019080803573ffffffffffffffffffffffffffffffffffffffff169060200190929190803573ffffffffffffffffffffffffffffffffffffffff1690602001909291908035906020019092919050505061079e565b604051808215151515815260200191505060405180910390f35b61029e61084f565b604051808260ff1660ff16815260200191505060405180910390f35b610306600480360360408110156102d057600080fd5b81019080803573ffffffffffffffffffffffffffffffffffffffff16906020019092919080359060200190929190505050610866565b604051808215151515815260200191505060405180910390f35b61032861093e565b60405180848152602001838152602001828152602001935050505060405180910390f35b6103826004803603604081101561036257600080fd5b810190808035906020019092919080359060200190929190505050610960565b604051808215151515815260200191505060405180910390f35b6103de600480360360208110156103b257600080fd5b81019080803573ffffffffffffffffffffffffffffffffffffffff169060200190929190505050610bf9565b604051808381526020018281526020019250505060405180910390f35b61043d6004803603602081101561041157600080fd5b81019080803573ffffffffffffffffffffffffffffffffffffffff169060200190929190505050610c8b565b6040518082815260200191505060405180910390f35b61045b610cd3565b6040518080602001828103825283818151815260200191508051906020019080838360005b8381101561049b578082015181840152602081019050610480565b50505050905090810190601f1680156104c85780820380516001836020036101000a031916815260200191505b509250505060405180910390f35b610522600480360360408110156104ec57600080fd5b81019080803573ffffffffffffffffffffffffffffffffffffffff16906020019092919080359060200190929190505050610d75565b604051808215151515815260200191505060405180910390f35b6105886004803603604081101561055257600080fd5b81019080803573ffffffffffffffffffffffffffffffffffffffff16906020019092919080359060200190929190505050610e4d565b604051808215151515815260200191505060405180910390f35b610604600480360360408110156105b857600080fd5b81019080803573ffffffffffffffffffffffffffffffffffffffff169060200190929190803573ffffffffffffffffffffffffffffffffffffffff169060200190929190505050610ff4565b6040518082815260200191505060405180910390f35b606060038054600181600116156101000203166002900480601f0160208091040260200160405190810160405280929190818152602001828054600181600116156101000203166002900480156106b25780601f10610687576101008083540402835291602001916106b2565b820191906000526020600020905b81548152906001019060200180831161069557829003601f168201915b5050505050905090565b6000600560019054906101000a900473ffffffffffffffffffffffffffffffffffffffff1673ffffffffffffffffffffffffffffffffffffffff163373ffffffffffffffffffffffffffffffffffffffff161415610782576040517f08c379a000000000000000000000000000000000000000000000000000000000815260040180806020018281038252601c8152602001807f546865206f776e6572206973206e6f7420617574686f72697a6564210000000081525060200191505060405180910390fd5b61078c838361107b565b905092915050565b6000600254905090565b60006107ab848484611092565b610844843361083f85600160008a73ffffffffffffffffffffffffffffffffffffffff1673ffffffffffffffffffffffffffffffffffffffff16815260200190815260200160002060003373ffffffffffffffffffffffffffffffffffffffff1673ffffffffffffffffffffffffffffffffffffffff1681526020019081526020016000205461118190919063ffffffff16565b61120a565b600190509392505050565b6000600560009054906101000a900460ff16905090565b6000600560019054906101000a900473ffffffffffffffffffffffffffffffffffffffff1673ffffffffffffffffffffffffffffffffffffffff163373ffffffffffffffffffffffffffffffffffffffff16141561092c576040517f08c379a000000000000000000000000000000000000000000000000000000000815260040180806020018281038252601c8152602001807f546865206f776e6572206973206e6f7420617574686f72697a6564210000000081525060200191505060405180910390fd5b6109368383611401565b905092915050565b6000806000600660000154600660010154600660020154925092509250909192565b6000600560019054906101000a900473ffffffffffffffffffffffffffffffffffffffff1673ffffffffffffffffffffffffffffffffffffffff163373ffffffffffffffffffffffffffffffffffffffff1614610a08576040517f08c379a00000000000000000000000000000000000000000000000000000000081526004018080602001828103825260238152602001806119aa6023913960400191505060405180910390fd5b60006006600001541480610a20575060066002015442115b610a75576040517f08c379a00000000000000000000000000000000000000000000000000000000081526004018080602001828103825260268152602001806119cd6026913960400191505060405180910390fd5b82610aa1600560019054906101000a900473ffffffffffffffffffffffffffffffffffffffff16610c8b565b1015610b15576040517f08c379a000000000000000000000000000000000000000000000000000000000815260040180806020018281038252601a8152602001807f6e6f7420656e6f75676820746f6b656e20617661696c61626c6500000000000081525060200191505060405180910390fd5b428211610b8a576040517f08c379a00000000000000000000000000000000000000000000000000000000081526004018080602001828103825260208152602001807f7468652074696d652073686f756c6420626520696e207468652066757475726581525060200191505060405180910390fd5b8260066000018190555042600660010181905550816006600201819055507fbacda308279f1dc8868d94c35248a0ba2c166081a8ae1ce795a950de76aa040983428460405180848152602001838152602001828152602001935050505060405180910390a16001905092915050565b600080600960008473ffffffffffffffffffffffffffffffffffffffff1673ffffffffffffffffffffffffffffffffffffffff16815260200190815260200160002060000154600960008573ffffffffffffffffffffffffffffffffffffffff1673ffffffffffffffffffffffffffffffffffffffff1681526020019081526020016000206001015491509150915091565b60008060008373ffffffffffffffffffffffffffffffffffffffff1673ffffffffffffffffffffffffffffffffffffffff168152602001908152602001600020549050919050565b606060048054600181600116156101000203166002900480601f016020809104026020016040519081016040528092919081815260200182805460018160011615610100020316600290048015610d6b5780601f10610d4057610100808354040283529160200191610d6b565b820191906000526020600020905b815481529060010190602001808311610d4e57829003601f168201915b5050505050905090565b6000600560019054906101000a900473ffffffffffffffffffffffffffffffffffffffff1673ffffffffffffffffffffffffffffffffffffffff163373ffffffffffffffffffffffffffffffffffffffff161415610e3b576040517f08c379a000000000000000000000000000000000000000000000000000000000815260040180806020018281038252601c8152602001807f546865206f776e6572206973206e6f7420617574686f72697a6564210000000081525060200191505060405180910390fd5b610e4583836114a6565b905092915050565b6000600560019054906101000a900473ffffffffffffffffffffffffffffffffffffffff1673ffffffffffffffffffffffffffffffffffffffff163373ffffffffffffffffffffffffffffffffffffffff161415610fe2576006600201544210610f1f576040517f08c379a000000000000000000000000000000000000000000000000000000000815260040180806020018281038252601c8152602001807f63757272656e7420646973747269627574696f6e206973206f7665720000000081525060200191505060405180910390fd5b610f378260066000015461118190919063ffffffff16565b60066000018190555081600960008573ffffffffffffffffffffffffffffffffffffffff1673ffffffffffffffffffffffffffffffffffffffff16815260200190815260200160002060000160008282540192505081905550629e340060066001015401600960008573ffffffffffffffffffffffffffffffffffffffff1673ffffffffffffffffffffffffffffffffffffffff168152602001908152602001600020600101819055505b610fec838361154b565b905092915050565b6000600160008473ffffffffffffffffffffffffffffffffffffffff1673ffffffffffffffffffffffffffffffffffffffff16815260200190815260200160002060008373ffffffffffffffffffffffffffffffffffffffff1673ffffffffffffffffffffffffffffffffffffffff16815260200190815260200160002054905092915050565b600061108833848461120a565b6001905092915050565b828161109d82611562565b600960008373ffffffffffffffffffffffffffffffffffffffff1673ffffffffffffffffffffffffffffffffffffffff168152602001908152602001600020600001546110fb826110ed85610c8b565b61118190919063ffffffff16565b101561116f576040517f08c379a000000000000000000000000000000000000000000000000000000000815260040180806020018281038252601d8152602001807f696e73756666696369656e7420756e6c6f636b65642062616c616e636500000081525060200191505060405180910390fd5b61117a858585611640565b5050505050565b6000828211156111f9576040517f08c379a000000000000000000000000000000000000000000000000000000000815260040180806020018281038252601e8152602001807f536166654d6174683a207375627472616374696f6e206f766572666c6f77000081525060200191505060405180910390fd5b600082840390508091505092915050565b600073ffffffffffffffffffffffffffffffffffffffff168373ffffffffffffffffffffffffffffffffffffffff161415611290576040517f08c379a0000000000000000000000000000000000000000000000000000000008152600401808060200182810382526024815260200180611a186024913960400191505060405180910390fd5b600073ffffffffffffffffffffffffffffffffffffffff168273ffffffffffffffffffffffffffffffffffffffff161415611316576040517f08c379a00000000000000000000000000000000000000000000000000000000081526004018080602001828103825260228152602001806119886022913960400191505060405180910390fd5b80600160008573ffffffffffffffffffffffffffffffffffffffff1673ffffffffffffffffffffffffffffffffffffffff16815260200190815260200160002060008473ffffffffffffffffffffffffffffffffffffffff1673ffffffffffffffffffffffffffffffffffffffff168152602001908152602001600020819055508173ffffffffffffffffffffffffffffffffffffffff168373ffffffffffffffffffffffffffffffffffffffff167f8c5be1e5ebec7d5bd14f71427d1e84f3dd0314c0f7b2291e5b200ac8c7c3b925836040518082815260200191505060405180910390a3505050565b600061149c338461149785600160003373ffffffffffffffffffffffffffffffffffffffff1673ffffffffffffffffffffffffffffffffffffffff16815260200190815260200160002060008973ffffffffffffffffffffffffffffffffffffffff1673ffffffffffffffffffffffffffffffffffffffff168152602001908152602001600020546118dc90919063ffffffff16565b61120a565b6001905092915050565b6000611541338461153c85600160003373ffffffffffffffffffffffffffffffffffffffff1673ffffffffffffffffffffffffffffffffffffffff16815260200190815260200160002060008973ffffffffffffffffffffffffffffffffffffffff1673ffffffffffffffffffffffffffffffffffffffff1681526020019081526020016000205461118190919063ffffffff16565b61120a565b6001905092915050565b6000611558338484611092565b6001905092915050565b42600960008373ffffffffffffffffffffffffffffffffffffffff1673ffffffffffffffffffffffffffffffffffffffff16815260200190815260200160002060010154101561163d576000600960008373ffffffffffffffffffffffffffffffffffffffff1673ffffffffffffffffffffffffffffffffffffffff168152602001908152602001600020600101819055506000600960008373ffffffffffffffffffffffffffffffffffffffff1673ffffffffffffffffffffffffffffffffffffffff168152602001908152602001600020600001819055505b50565b600073ffffffffffffffffffffffffffffffffffffffff168373ffffffffffffffffffffffffffffffffffffffff1614156116c6576040517f08c379a00000000000000000000000000000000000000000000000000000000081526004018080602001828103825260258152602001806119f36025913960400191505060405180910390fd5b600073ffffffffffffffffffffffffffffffffffffffff168273ffffffffffffffffffffffffffffffffffffffff16141561174c576040517f08c379a00000000000000000000000000000000000000000000000000000000081526004018080602001828103825260238152602001806119656023913960400191505060405180910390fd5b61179d816000808673ffffffffffffffffffffffffffffffffffffffff1673ffffffffffffffffffffffffffffffffffffffff1681526020019081526020016000205461118190919063ffffffff16565b6000808573ffffffffffffffffffffffffffffffffffffffff1673ffffffffffffffffffffffffffffffffffffffff16815260200190815260200160002081905550611830816000808573ffffffffffffffffffffffffffffffffffffffff1673ffffffffffffffffffffffffffffffffffffffff168152602001908152602001600020546118dc90919063ffffffff16565b6000808473ffffffffffffffffffffffffffffffffffffffff1673ffffffffffffffffffffffffffffffffffffffff168152602001908152602001600020819055508173ffffffffffffffffffffffffffffffffffffffff168373ffffffffffffffffffffffffffffffffffffffff167fddf252ad1be2c89b69c2b068fc378daa952ba7f163c4a11628f55a4df523b3ef836040518082815260200191505060405180910390a3505050565b60008082840190508381101561195a576040517f08c379a000000000000000000000000000000000000000000000000000000000815260040180806020018281038252601b8152602001807f536166654d6174683a206164646974696f6e206f766572666c6f77000000000081525060200191505060405180910390fd5b809150509291505056fe45524332303a207472616e7366657220746f20746865207a65726f206164647265737345524332303a20617070726f766520746f20746865207a65726f20616464726573734f74686572207468616e206f776e6572206973206e6f7420617574686f72697a6564215468652070726576696f75736520646973747269627574696f6e206973206e6f74206f76657245524332303a207472616e736665722066726f6d20746865207a65726f206164647265737345524332303a20617070726f76652066726f6d20746865207a65726f2061646472657373a26474726f6e58201d3ff5b1856d607c2cad163789a932d81a8aa996c252c00bf0c8a52bad599a3a64736f6c634300050f003145524332303a207472616e7366657220746f20746865207a65726f206164647265737345524332303a207472616e736665722066726f6d20746865207a65726f2061646472657373",
  "source": "pragma solidity ^0.5.0;\n\nimport \"./ERC20.sol\";\nimport \"./ERC20Detailed.sol\";\nimport \"./Owned.sol\";\nimport \"./LockedWallet.sol\";\nimport \"./Redistributed.sol\";\n\n/**\n * @title SimpleToken\n * @dev Very simple ERC20 Token example, where all tokens are pre-assigned to the creator.\n * Note they can later distribute these tokens as they wish using `transfer` and other\n * `ERC20` functions.\n */\ncontract Token is ERC20, ERC20Detailed, Owned, Redistributed, LockedWallet {\n\n    /**\n     * @dev Constructor that gives msg.sender all of existing tokens.\n     */\n    constructor () public ERC20Detailed(\"NetIx\", \"NTX\", 6) {\n        _mint(msg.sender, 15000000 * (10 ** uint256(decimals())));\n        _transfer(msg.sender, address(0x4161aa39fcd83e05725b0381758349a30b9cf4b423), 1500000 * (10 ** uint256(decimals()))); // founders share\n        _transfer(msg.sender, address(0x41e87aa3e648c1a207fc0985053bb28fb614c44293), 750000 * (10 ** uint256(decimals()))); // teams share\n        _transfer(msg.sender, address(0x417ccb36b0abca9c2ca189842eeca679f3d9a7a607), 300000 * (10 ** uint256(decimals()))); // counsultors share\n        _transfer(msg.sender, address(0x41016bf3b2244db9465ecd7302cf819507d0aed880), 450000 * (10 ** uint256(decimals()))); // partners share\n        // transfer(address(0x4135a1ca2155b0b4fa618f394c63e6115406eb4070), 1500000 * (10 ** uint256(decimals()))); // founders share\n        // transfer(address(0x41BD3515A2992DDB6FE38B94A3DB0740ABE5BE7A51), 750000 * (10 ** uint256(decimals()))); // teams share\n        // transfer(address(0x41A8CFB0B2EAA2A320E21438A72CAD8DE6668D1A2F), 300000 * (10 ** uint256(decimals()))); // counsultors share\n        // transfer(address(0x41218AC26AFFBA0ED5A6872436D610157A9AFE015A), 450000 * (10 ** uint256(decimals()))); // partners share\n    }\n\n    function approve(address spender, uint256 addedValue) public notOwner returns (bool) {\n        return super.approve(spender, addedValue);\n    }\n\n    function increaseAllowance(address spender, uint256 addedValue) public notOwner returns (bool) {\n        return super.increaseAllowance(spender, addedValue);\n    }\n\n    function decreaseAllowance(address spender, uint256 subtractedValue) public notOwner returns (bool) {\n        return super.decreaseAllowance(spender, subtractedValue);\n    }\n\n    function transfer(address recipient, uint256 amount) public returns (bool) {\n        if (msg.sender == _contractOwner) {\n            require (block.timestamp < _currentDistribution.endTime, \"current distribution is over\");\n            _currentDistribution.amount = _currentDistribution.amount.sub(amount);\n            _lockedBalances[recipient].amount += amount;\n            _lockedBalances[recipient].endTime = _currentDistribution.startTime + 120 days;\n        }\n        return super.transfer(recipient, amount);\n    }\n\n    function _transfer(address sender, address recipient, uint256 amount) internal checkLockedBalance(sender, amount) {\n        return super._transfer(sender, recipient, amount);\n    }\n}",
  "sourcePath": "/var/www/html/netixgroup.com/blockchain/contracts/Token.sol",
  "compiler": {
    "name": "solc",
    "version": "0.5.15+commit.fd7f48cf.Emscripten.clang"
  },
  "schemaVersion": "2.0.1",
  "updatedAt": "2021-09-05T15:38:27.234Z"
}